{
  "contractName": "VerifySignature",
  "abi": [
    {
      "inputs": [
        {
          "internalType": "string",
          "name": "_message",
          "type": "string"
        }
      ],
      "name": "getMessageHash",
      "outputs": [
        {
          "internalType": "bytes32",
          "name": "",
          "type": "bytes32"
        }
      ],
      "stateMutability": "pure",
      "type": "function",
      "constant": true
    },
    {
      "inputs": [
        {
          "internalType": "bytes32",
          "name": "_messageHash",
          "type": "bytes32"
        }
      ],
      "name": "getEthSignedMessageHash",
      "outputs": [
        {
          "internalType": "bytes32",
          "name": "",
          "type": "bytes32"
        }
      ],
      "stateMutability": "pure",
      "type": "function",
      "constant": true
    },
    {
      "inputs": [
        {
          "internalType": "address",
          "name": "_signer",
          "type": "address"
        },
        {
          "internalType": "string",
          "name": "_message",
          "type": "string"
        },
        {
          "internalType": "bytes",
          "name": "signature",
          "type": "bytes"
        }
      ],
      "name": "verify",
      "outputs": [
        {
          "internalType": "bool",
          "name": "",
          "type": "bool"
        }
      ],
      "stateMutability": "pure",
      "type": "function",
      "constant": true
    },
    {
      "inputs": [
        {
          "internalType": "bytes32",
          "name": "_ethSignedMessageHash",
          "type": "bytes32"
        },
        {
          "internalType": "bytes",
          "name": "_signature",
          "type": "bytes"
        }
      ],
      "name": "recoverSigner",
      "outputs": [
        {
          "internalType": "address",
          "name": "",
          "type": "address"
        }
      ],
      "stateMutability": "pure",
      "type": "function",
      "constant": true
    },
    {
      "inputs": [
        {
          "internalType": "bytes",
          "name": "sig",
          "type": "bytes"
        }
      ],
      "name": "splitSignature",
      "outputs": [
        {
          "internalType": "bytes32",
          "name": "r",
          "type": "bytes32"
        },
        {
          "internalType": "bytes32",
          "name": "s",
          "type": "bytes32"
        },
        {
          "internalType": "uint8",
          "name": "v",
          "type": "uint8"
        }
      ],
      "stateMutability": "pure",
      "type": "function",
      "constant": true
    }
  ],
  "bytecode": "0x608060405234801561001057600080fd5b50610a11806100206000396000f3fe608060405234801561001057600080fd5b50600436106100575760003560e01c80632dd34f0f1461005c57806397aba7f91461008c578063a7bb5803146100bc578063b446f3b2146100ee578063fa5408011461011e575b600080fd5b6100766004803603810190610071919061053c565b61014e565b60405161008391906105e2565b60405180910390f35b6100a660048036038101906100a19190610633565b6101ac565b6040516100b3919061069e565b60405180910390f35b6100d660048036038101906100d191906106b9565b61021b565b6040516100e59392919061072d565b60405180910390f35b61010860048036038101906101039190610764565b610283565b60405161011591906107ad565b60405180910390f35b610138600480360381019061013391906107c8565b6102b3565b60405161014591906107ad565b60405180910390f35b60008061015a84610283565b90506000610167826102b3565b90508573ffffffffffffffffffffffffffffffffffffffff1661018a82866101ac565b73ffffffffffffffffffffffffffffffffffffffff1614925050509392505050565b6000806000806101bb8561021b565b925092509250600186828585604051600081526020016040526040516101e494939291906107f5565b6020604051602081039080840390855afa158015610206573d6000803e3d6000fd5b50505060206040510351935050505092915050565b60008060006041845114610264576040517f08c379a000000000000000000000000000000000000000000000000000000000815260040161025b90610897565b60405180910390fd5b6020840151925060408401519150606084015160001a90509193909250565b6000816040516020016102969190610931565b604051602081830303815290604052805190602001209050919050565b6000816040516020016102c691906109b5565b604051602081830303815290604052805190602001209050919050565b6000604051905090565b600080fd5b600080fd5b600073ffffffffffffffffffffffffffffffffffffffff82169050919050565b6000610322826102f7565b9050919050565b61033281610317565b811461033d57600080fd5b50565b60008135905061034f81610329565b92915050565b600080fd5b600080fd5b6000601f19601f8301169050919050565b7f4e487b7100000000000000000000000000000000000000000000000000000000600052604160045260246000fd5b6103a88261035f565b810181811067ffffffffffffffff821117156103c7576103c6610370565b5b80604052505050565b60006103da6102e3565b90506103e6828261039f565b919050565b600067ffffffffffffffff82111561040657610405610370565b5b61040f8261035f565b9050602081019050919050565b82818337600083830152505050565b600061043e610439846103eb565b6103d0565b90508281526020810184848401111561045a5761045961035a565b5b61046584828561041c565b509392505050565b600082601f83011261048257610481610355565b5b813561049284826020860161042b565b91505092915050565b600067ffffffffffffffff8211156104b6576104b5610370565b5b6104bf8261035f565b9050602081019050919050565b60006104df6104da8461049b565b6103d0565b9050828152602081018484840111156104fb576104fa61035a565b5b61050684828561041c565b509392505050565b600082601f83011261052357610522610355565b5b81356105338482602086016104cc565b91505092915050565b600080600060608486031215610555576105546102ed565b5b600061056386828701610340565b935050602084013567ffffffffffffffff811115610584576105836102f2565b5b6105908682870161046d565b925050604084013567ffffffffffffffff8111156105b1576105b06102f2565b5b6105bd8682870161050e565b9150509250925092565b60008115159050919050565b6105dc816105c7565b82525050565b60006020820190506105f760008301846105d3565b92915050565b6000819050919050565b610610816105fd565b811461061b57600080fd5b50565b60008135905061062d81610607565b92915050565b6000806040838503121561064a576106496102ed565b5b60006106588582860161061e565b925050602083013567ffffffffffffffff811115610679576106786102f2565b5b6106858582860161050e565b9150509250929050565b61069881610317565b82525050565b60006020820190506106b3600083018461068f565b92915050565b6000602082840312156106cf576106ce6102ed565b5b600082013567ffffffffffffffff8111156106ed576106ec6102f2565b5b6106f98482850161050e565b91505092915050565b61070b816105fd565b82525050565b600060ff82169050919050565b61072781610711565b82525050565b60006060820190506107426000830186610702565b61074f6020830185610702565b61075c604083018461071e565b949350505050565b60006020828403121561077a576107796102ed565b5b600082013567ffffffffffffffff811115610798576107976102f2565b5b6107a48482850161046d565b91505092915050565b60006020820190506107c26000830184610702565b92915050565b6000602082840312156107de576107dd6102ed565b5b60006107ec8482850161061e565b91505092915050565b600060808201905061080a6000830187610702565b610817602083018661071e565b6108246040830185610702565b6108316060830184610702565b95945050505050565b600082825260208201905092915050565b7f696e76616c6964207369676e6174757265206c656e6774680000000000000000600082015250565b600061088160188361083a565b915061088c8261084b565b602082019050919050565b600060208201905081810360008301526108b081610874565b9050919050565b600081519050919050565b600081905092915050565b60005b838110156108eb5780820151818401526020810190506108d0565b838111156108fa576000848401525b50505050565b600061090b826108b7565b61091581856108c2565b93506109258185602086016108cd565b80840191505092915050565b600061093d8284610900565b915081905092915050565b7f19457468657265756d205369676e6564204d6573736167653a0a333200000000600082015250565b600061097e601c836108c2565b915061098982610948565b601c82019050919050565b6000819050919050565b6109af6109aa826105fd565b610994565b82525050565b60006109c082610971565b91506109cc828461099e565b6020820191508190509291505056fea26469706673582212203e2cdf8a1c82f96a1b87bb4b22407f0129b2112db57fc7507d1cebfaebf5a77f64736f6c634300080a0033",
  "immutableReferences": {},
  "source": "// SPDX-License-Identifier: MIT\npragma solidity ^0.8.10;\n\n\n\ncontract VerifySignature {\n\n    function getMessageHash(\n        string memory _message\n    ) public pure returns (bytes32) {\n        return keccak256(abi.encodePacked(_message));\n    }\n    function getEthSignedMessageHash(bytes32 _messageHash)\n        public\n        pure\n        returns (bytes32)\n    {\n        return\n            keccak256(\n                abi.encodePacked(\"\\x19Ethereum Signed Message:\\n32\", _messageHash)\n            );\n    }\n\n    \n    function verify(\n        address _signer,\n        string memory _message,\n        bytes memory signature\n    ) public pure returns (bool) {\n        bytes32 messageHash = getMessageHash(_message);\n        bytes32 ethSignedMessageHash = getEthSignedMessageHash(messageHash);\n\n        return recoverSigner(ethSignedMessageHash, signature) == _signer;\n    }\n\n    function recoverSigner(bytes32 _ethSignedMessageHash, bytes memory _signature)\n        public\n        pure\n        returns (address)\n    {\n        (bytes32 r, bytes32 s, uint8 v) = splitSignature(_signature);\n\n        return ecrecover(_ethSignedMessageHash, v, r, s);\n    }\n\n    function splitSignature(bytes memory sig)\n        public\n        pure\n        returns (\n            bytes32 r,\n            bytes32 s,\n            uint8 v\n        )\n    {\n        require(sig.length == 65, \"invalid signature length\");\n\n        assembly {\n            \n            r := mload(add(sig, 32))\n            s := mload(add(sig, 64))\n            v := byte(0, mload(add(sig, 96)))\n        }\n\n    }\n}\n\n",
  "sourcePath": "/home/th3shadow/Documents/work project/VerifySig/contracts/Verify.sol",
  "compiler": {
    "name": "solc",
    "version": "0.8.10+commit.fc410830.Emscripten.clang"
  },
  "schemaVersion": "3.4.6",
  "updatedAt": "2022-03-26T15:24:30.328Z",
  "networkType": "ethereum",
  "devdoc": {
    "kind": "dev",
    "methods": {},
    "version": 1
  },
  "userdoc": {
    "kind": "user",
    "methods": {},
    "version": 1
  }
}